:020000041000EA
:1000000000B5324B212058609868022188439860DF
:10001000D860186158612E4B002199600221596106
:100020000121F02299502B49196001219960352056
:1000300000F044F80222904214D00621196600F024
:1000400034F8196E01211966002018661A6600F04E
:100050002CF8196E196E196E052000F02FF8012189
:100060000842F9D1002199601B49196000215960AB
:100070001A491B48016001219960EB211966A021F2
:10008000196600F012F800219960164914480160C1
:100090000121996001BC002800D000471248134993
:1000A000086003C880F30888084703B5996A0420EC
:1000B0000142FBD001200142F8D103BD02B5186610
:1000C0001866FFF7F2FF186E186E02BD00000240BE
:1000D000000000180000070000035F00212200005C
:1000E000F4000018222000A00001001008ED00E03C
:1000F00000000000000000000000000074B24E7A12
:1001000000200420F7010010C3010010C5010010F9
:10011000C1010010C1010010C1010010C101001097
:10012000C1010010C1010010C1010010C701001081
:10013000C1010010C1010010C9010010CB01001065
:10014000CD010010CD010010CD010010CD01001037
:10015000CD010010CD010010CD010010CD01001027
:10016000CD010010CD010010CD010010CD01001017
:10017000CD010010CD010010CD010010CD01001007
:10018000CD010010CD010010CD010010CD010010F7
:10019000CD010010CD010010CD010010CD010010E7
:1001A000CD010010CD010010CD010010CD010010D7
:1001B000CD010010CD010010CD010010CD010010C7
:1001C00000BE00BE00BE00BE00BE00BEEFF3058054
:1001D000103800BEF2EB887148CD06106CCD0610C9
:1001E0003402001090A31AE700201F49086006C8D7
:1001F00081F3088810471D48006800282FD10DA4FE
:100200000ECC002902D000F012F8F9E71849194A7B
:10021000002000E001C19142FCD1174988471749ED
:1002200088471749884700BEFDE701C901C29A42C5
:10023000FBD370476CCD0610C00000204410002096
:10024000F0DC06100000042000000420F0DC0610A2
:10025000001004200010042000000000704709482E
:1002600000F0B0FE0047000008ED00E0000000D004
:1002700048100020B8DA0020C55E001055060010B6
:10028000815E00105756000006005250ABB3605319
:10029000BC00031006005250861C0302D400031059
:1002A000060052505422A29DE8000310050052504F
:1002B000DE65F468F0DC0610F8B5C04610B5064CF3
:1002C0002378002B07D1054B002B02D0044800E017
:1002D00000BF0123237010BD481100200000000062
:1002E00010D90210044B10B5002B03D00349044869
:1002F00000E000BF10BDC046000000004C1100200F
:1003000010D9021010B50821012007F011FD041EBC
:1003100001D0200010BD024807F0A4FEF9E7C04656
:1003200010D9021010B50400024807F0CBFE0023DC
:10033000236010BD2CD9021010B5040001230371F5
:100340000068002820D000210AF026FA00220021AF
:1003500020680AF031FA002120680AF025FA00210D
:1003600020680AF038FA20680AF085FA011E02D1E6
:100370000023236010BD054807F0A4FE20680AF0A2
:100380006FFA0D204042F3E70020F3E740D9021056
:10039000F0B5C64600B500AF06000D00141E0AD029
:1003A0001289002A0ED1200009F0DEFD0020BD4692
:1003B00080BCB846F0BD104807F054FE3000FFF78F
:1003C000BBFFF4E76E4613000833DB08DB00F31ACB
:1003D0009D46E84600236946200009F0FFFF238977
:1003E00000224146CA54054807F06CFE21892800C6
:1003F0000AF0F5F9B546D6E760D9021074D90210B3
:1004000010B50400034807F05DFE2000FFF794FFDD
:1004100010BDC046A0D9021070B504000D0012F046
:100420003DFE0100BC26FF3632000B4807F04AFEB5
:100430000A4B3200210028680AF0F0F9021E00D1B0
:1004400070BD074B1B68D868064928F0ADF8280036
:10045000FFF772FFF4E7C046ACD902109D0400100C
:100460007C060020D0D9021070B50C0015000029C0
:1004700007D0084807F0F6FD29002000FFF7CCFF61
:1004800070BD0100044807F01DFE2800FFF754FF6F
:10049000F6E7C046F4D902100CDA021010B50400D9
:1004A000111E0BD10C4807F0DDFD012343220B493F
:1004B00020680AF008FA011E07D110BD084807F0AD
:1004C00001FE2000FFF738FFF7E7064807F0FAFDC6
:1004D0002000FFF731FFF0E740DA021068DA02107F
:1004E0002CDA0210ACDA021030B583B005000C0033
:1004F000264B18682E210AF08CFB206000282DD096
:1005000021000AF049F91E22214920680AF054F915
:10051000204920680AF048F91F4920680AF05BF971
:10052000206813F0C5FC290027F044FB29001B4874
:1005300007F0C8FD00F0CAFB2300194A01A92800F2
:1005400008F026FE051E0ED0431D11D100F0DCFB85
:10055000002D17D06B1D13D0002014E0114807F0B8
:1005600081FD00200FE0210001A8FFF755FFEDE716
:1005700001000D4807F0A6FD2068FFF7DDFEE5E766
:10058000012000E0012003B030BDC04678DA002031
:10059000010400109103001025030010E0DA02109E
:1005A00069040010C8DA0210F0DA0210F0B50D008C
:1005B00016009C4600211AE035235840104B187055
:1005C0001E23033BFDD201321F2A0CDC0C4B1B788F
:1005D0005800C0B20B4FFF693843C0B25BB2002B6A
:1005E000EADB0023E9E7064B1B782B5501310C00B1
:1005F000B14201D20022E7E763461E600020F0BD51
:10060000A3DA00200000064010B50021002013F0FE
:100610009FFC0E4B1860FFF775FE041E14D00100FE
:100620000B48FFF761FF002804D10DE0FA2080009D
:1006300004F09EFF2379002BF8D0200007F08AFBFE
:10064000024B186813F03BFC10BDC04678DA00205E
:1006500018DB021010B507F041FD00F0B1FA0028D8
:1006600012D100F02FF90D4B0D4A0E490E4800F043
:10067000B7F8041E0DD1FFF7C7FF642004F078FF20
:1006800000F078FA200010BD084807F0EBFC0124C8
:10069000F8E7074807F0E6FC0124F3E730750000AF
:1006A0000400400044DB021054DB02102CDB02107B
:1006B00060DB0210033006280FD88000094B1B585E
:1006C0009F46094870470948FCE70948FAE7094886
:1006D000F8E70948F6E70948F4E70948F2E7094866
:1006E000F0E7C046C8DB0210BCDB021084DB02105E
:1006F0008CDB021094DB0210A0DB0210B0DB0210D6
:1007000074DB02107CDB0210F0B585B005000C0034
:100710001600002915D0280028F06AFC0700002CDC
:1007200011D0200028F064FC030000220392029202
:10073000019600942A003900044803F04DFD05B0ED
:10074000F0BD0026E7E70023EFE7C046301E00209B
:10075000F0B583B0089F099EFFF7D6FF01900028EF
:1007600030D104250CE0FFF7A5FF0100194807F080
:10077000A9FC25000FE0019B00E0019BDB0724D4CE
:10078000002D1CDB032D1AD00021134803F090F933
:1007900004008542E7D100F03FFB3800310004F04F
:1007A000F1FE0E4B5B6A9E42E7D80C48806AB84265
:1007B00003D29E42DFD00123E0E70123DEE7032DD1
:1007C00000D00195019803B0F0BD01235B42019375
:1007D000F8E7C046E4DB0210301E00200040054070
:1007E000F0B5CE46474680B583B006000F00904670
:1007F000994604F059FF04000D1E18DBFA229200FE
:1008000000234846002107F02FFA24184D41002DFF
:1008100013DB002D15DB00940195424639003000B2
:10082000FFF796FF03B0C0BCB946B046F0BD084B19
:10083000084A3F21084805F027FB01246442074D80
:10084000E7E7034B034A3F21034805F01DFBC04681
:10085000F8DB021000DD021014DC0210FFFFFF7F46
:1008600010B505F0C3FB000010B582B00C000A48BB
:1008700007F0F8FB684600F0D9FA06226B46991C8F
:10088000200007F079FA2378012293432370022293
:100890001343237002B010BD5CDC021010B50800D9
:1008A00003490622034B9C46614407F065FA10BDDC
:1008B000301E002088090000014B18687047C046B0
:1008C0007005002010B50A4A0A4BD35C002B08D0F3
:1008D000FFF7F2FF030001220021054803F016FC98
:1008E00010BD054B054A1A21054805F0CDFAC04652
:1008F000301E00206C08000094DC021018DD02108D
:10090000B8DC021010B5012813D880000F4BC1507D
:100910000F4B1B78D0221206126893420FD0002B87
:1009200012D00C4A1C3280239B01134302221A600E
:1009300010BD094B094ADF21094805F0A5FA094B0A
:10094000187803F0D7FDF3E7074AEBE7142D0020F2
:10095000A7DA00203041014034DD0210A4DE02108D
:1009600068DD0210B0DA00200041014010B5D0234C
:100970001B061B68002B04D00F4BDB6A9B0702D4BD
:1009800010BD0E4BF9E700220221182003F016FDDE
:10099000D0231B061B68002B0CD0074A1C32C02337
:1009A0009B01134302221A60054B19680020FFF7D0
:1009B000A9FFE5E7014AF1E730410140004101406C
:1009C000281E002010B503490120FFF79BFF0248B5
:1009D000002110BDDD09001050C3000010B50EF05D
:1009E000F1FE094B1968002908D0084B1B68002B41
:1009F00004D0013B054A1360002B00D010BD00203D
:100A0000FFF780FFFAE7C046281E00202C1E0020BA
:100A100070B50400D0231B061B68104A12789A4256
:100A200014D1002004F038F8002815DBC0B20C4DBA
:100A300028700C4903F06EFD2878012103F052FD67
:100A40002878210003F080FF012070BD064B074A83
:100A50009F21074805F018FA0020F6E7A7DA0020E2
:100A6000B0DA0020750A0010C8DD021078DE02102E
:100A700068DD021010B51D4B1A78D0231B061B68C9
:100A80009A4213D100211A482CF00AFF002829D0DD
:100A9000174B5B79012B0FD0164B01221A701448AB
:100AA0002CF026FF14482CF0DBFE10BD134B144A2B
:100AB0008121144805F0E8F9134B01221A70002433
:100AC00000E00134012C09D8A300104A9A58002AEA
:100AD000F7D00E49002058509047F2E70A4B002209
:100AE0001A70DCE7034B01221A70DBE7A7DA00205B
:100AF000201E0020AFDA0020181E0020ECDD0210BE
:100B00005CDE021068DD0210ADDA0020142D00203A
:100B100010B5094B1878002800D110BD002103F052
:100B2000E1FC054C2078054903F038FE207803F0FD
:100B3000A5FF00232370F0E7B0DA0020750A00104B
:100B400010B5EFF30583002B02D004F0B9FD10BD02
:100B500004F064FCFBE7000010B5EFF30583002B05
:100B600000D010BD010002482CF0BAFEF9E7C046E3
:100B7000181E002010B50F4B1C68002C0FDA002245
:100B80000221182003F01AFC80200B49800103F099
:100B9000CBFBFFF7BDFF094803F058F910BD04F087
:100BA000FBFA210004F0C2FB024B012252421A6000
:100BB000E5E7C046740500206D090010301E0020D6
:100BC00010B584B0D0231B061A682D4B1A702D481F
:100BD00005F0A7F82C4803F0F3F8012200212B4878
:100BE00003F072FF04F0D8FA040004F05DFD020087
:100BF0000B1E2DDB2648002112184B41002B2DDB4C
:100C0000002B2FDB0121029100210191214900914C
:100C1000200004F0D7FA204B186000282DDB80203C
:100C200040221E49800103F05FFB012202211820AF
:100C300003F0C4FB01210D2003F054FC07F0C6FCB7
:100C4000FF20FFF7E5FE002812D0002004B010BD01
:100C5000134B144A3F21144805F016F90122524261
:100C6000124BCDE70E4B0F4A3F210F4805F00CF910
:100C7000FFF780FF02204042E8E702204042E5E71C
:100C8000A7DA0020201E0020301E0020181E0020A1
:100C900050C30000C5090010740500206D09001044
:100CA000F8DB02108CDE021014DC0210FFFFFF7F65
:100CB00010B501220221182003F080FB10BD10B5F1
:100CC00001000020FFF71EFE10BD000010B5024815
:100CD0002CF0F6FD10BDC046201E002010B5084BBC
:100CE0005B79002B09D0064B1B795BB2D022120630
:100CF000127852B29A4200D110BD024805F05EF956
:100D0000201E002010DE021010B50E4B5B79012B67
:100D10000CD10D4B1B78002B0CD10C4B1B68002BFE
:100D200004D00B4B19680020FFF7ECFD05482CF0B0
:100D3000DFFD10BD0A21074B074AFF31074805F0C8
:100D4000A3F8C046201E0020ADDA0020142D00209C
:100D5000281E002030DE021048DE021068DD02107E
:100D600070B5060004F0A0FC04000D1E0FDBFA2293
:100D7000920000233000002106F076FF001969413F
:100D800000290ADB00290CDBFFF7DAFE70BD084BF7
:100D9000084A3F21084805F077F8012040420749FA
:100DA000F0E7034B034A3F21034805F06DF8C046C6
:100DB000F8DB02108CDE021014DC0210FFFFFF7F54
:100DC00070B50400002504F06FFC02000B1E0ADB66
:100DD000200029008018594100290ADB00290CDB7A
:100DE000FFF7AEFE70BD084B084A3F21084805F0EA
:100DF0004BF8012040420749F0E7034B034A3F21EB
:100E0000034805F041F8C046F8DB02108CDE021002
:100E100014DC0210FFFFFF7F7047000010B502488E
:100E200000F00CF810BDC046E8D7002010B508222D
:100E3000014906F0A1FF10BDE8D7002070B588B0C9
:100E4000040004AD002604960922002105A806F03E
:100E50008DFF00960922002101A806F087FF4B2391
:100E60002B700D22694628002CF002FD002304E0BF
:100E70005A1D69468A5CE2540133072BF8DD08B03D
:100E800070BD0000EFF3108072B6034B1B68002B9F
:100E9000FBD0BFF35F8F70472C0100D0BFF35F8F93
:100EA000024B00221A6080F3108870472C0100D09A
:100EB000F8B506000C001500FFF7E4FFE308F7188B
:100EC000F15C07222240012393400B4205D1DBB2A3
:100ED0000B433B70FFF7E2FFF8BD2100280005F04F
:100EE0006DF8F0B583B00600019114001F00FFF704
:100EF000C9FF00E00134BC420CD8E308F518F35CEC
:100F00000721214001228A401A42F3D1D2B21A436A
:100F10002A7001E001246442FFF7C0FF002C02DBCD
:100F2000200003B0F0BD019B002BF9D0089805F01C
:100F300045F8000070B505000C00FFF7A3FFE308BB
:100F4000EE18EA5C07210C400123A340134204D0B1
:100F50009A433270FFF7A2FF70BD034B034A2C3156
:100F6000034804F091FFC04630E0021094E0021004
:100F700050E00210034B1B6802201840431E9841AA
:100F8000C0B2704700C00640002307E0054A9A1827
:100F90009200BFF35F8F0021116001331F2BF5D941
:100FA0007047C04640000034054A1078431CDBB24D
:100FB0001370172B02D9130010221A707047C04605
:100FC0007805002010B5010018231B881422108812
:100FD000984710BD10B5010018231B8816221088F1
:100FE000984710BDF0B5C64600B507000E000025B5
:100FF0000123984600E00135B5420AD2AC003C1905
:101000002068FFF7DFFF20600028F4D10023984616
:10101000F1E7404680BCB846F0BD002805D0D0239B
:101020001B06802292045A617047D0231B0680223F
:1010300092049A61F8E710B584231B01C45800207C
:10104000FFF7EBFF2179182003F004F910BD000031
:1010500010B50400052005F0D1F8000C60430349E9
:1010600006F064FA0338FDD210BDC0469A3B00007A
:1010700010B50120FFF7D1FF6420FFF7E9FF10BD95
:1010800070B5050084231B01C458002C18D006231A
:10109000E356002B08DB0522A256531C11D1062172
:1010A0006156206807F050F90720205600280DDA15
:1010B0000820205600280EDA84231B010022EA5063
:1010C00070BD0749206807F09DF9E8E707F066FA68
:1010D000FF23E371ECE707F061FAFF232372EBE7EC
:1010E0008CE30210F0B5DE4657464E464546E0B565
:1010F00093B0824610AA894B03CB03C28849894822
:1011000007F050F9002800D1EAE0012384221201FF
:1011100051468A58002A00D0EAE0834C842212010A
:101120008C50990010AA88582060FF222272E27128
:1011300006332371002107F017F940B2A07100288F
:1011400000DADBE0784C7649206807F03FF943B2DB
:10115000984663711022002108A806F007FE80253A
:101160006D020895F8235B0209938023DB020A9342
:10117000C0273F030A97102208A904A806F0FCFD27
:1011800043465A1D059B0393684818404346DB01BC
:101190001843120310430590079B0393DB00DB0801
:1011A00080229205904613430793614B994618405D
:1011B0000590102204A90CA806F0DEFD80239B02F6
:1011C0000C935C48016830228A435B490A600068DE
:1011D00001229346160086430E600F9903915748EB
:1011E0000840574901430F91564801400F430F975C
:1011F00055493940554F0F430F97FF00FF084146AF
:101200000F430F970D990391494603980140894672
:101210000D914F4F0F970E9903914E49039801403E
:101220000D430E954C490D401D430E9521683831F4
:1012300080239B010B43802149041960206806210B
:1012400061564B005B18DB00C318C826B4469C44AB
:1012500066460C9A3260CC2294469C4462464E46C6
:101260001660D02294469C4462461560DC331F60B1
:101270005B4600931D2207F03FF92179182002F008
:10128000E9FF21791D2002F0E5FF0122002118204D
:1012900002F0F8FF0121182003F00EF80622A256F2
:1012A00053009B18DB00226894466344D8332B4AD2
:1012B0001A60002007F07AF9E071002007F076F953
:1012C00040B220720723E356002B1DDB00281BDBF6
:1012D000002013B0F0BCBB46B246A946A046F0BD04
:1012E0000F491F4807F05EF8002813D000230DE7D0
:1012F0001C4B1D4A68211D4804F0C6FD5046FFF7EF
:10130000BFFE06204042E4E75046FFF7B9FE062044
:101310004042DEE706204042DBE7C046F0E2021032
:101320008CE3021000003050E01D00207F00FEFF23
:10133000FFFFFF9F78C0014078D00140E0FF0FFC25
:1013400018001000FF7FF0FF1FFCFFE30003000404
:1013500018771C24FFFF0AFEFFFFF5C101E0000023
:1013600000002050A4E002107CE30210B4E0021060
:10137000F0B5DE4657464E464546E0B583B00D0013
:1013800016009946002900D183E184231B01C4582B
:10139000FFF751FE4B46002B00D1F1E1002D00D1AB
:1013A0007DE1B30700D087E1A846AB0700D089E113
:1013B0004B469B0700D08BE10C9B9B0700D08DE137
:1013C000226806216156136801252800884083435E
:1013D0001360062161560523E3565A1D92464800C4
:1013E0004218D2002768BC466244CC321268CB4F08
:1013F0003A40DB0113435246120313434018C00026
:1014000062461118CC310B600622A25653009B187D
:10141000DB00D0331A0023689C46624480235B01C2
:101420001343802212061A601A6006216156802238
:1014300052041300206807F011F80623E356043322
:101440002900994080239B0122681A4311600622DB
:10145000A2560832290091400A0021680B431A6005
:101460000623E356F200013A04339B0021685A50E8
:101470000622A25653009B18DB0022689446634460
:10148000D833A74A1A600623E3560C9A921BD2005F
:10149000013A04339B0021685A500622A256530099
:1014A0009B18DB00226894466344D8339D4A1A6037
:1014B000062161560523E3561F221A404B005B1894
:1014C000DB0021688C466344D8331A600722A25699
:1014D0002B009340A020C005934943509101A023C5
:1014E000DB059C466144CB68DB01F7D4082020561D
:1014F0000123834061468C4A8B508101A023DB0588
:101500009C466144CA6880235B04110019401A425A
:10151000F3D10722A256854B0C2A00D9E4E0844877
:101520000340D20213430C229343043A1343814AEB
:101530001340814A1340814A134001221343804AD9
:101540001340022293438022D20313430622A25661
:101550007C482568854200D1CCE0082012183F2A3B
:1015600000D9C9E078480340D2031343072020562E
:101570000622A25604329500226894466544B208B9
:101580008001A027FF05BC466044474607604560D0
:101590008260C36008202056644B0C2800D9B1E05B
:1015A000634D2B40C00203430C20834304380343A4
:1015B0006048034060480340604803400120034303
:1015C0005F480340022083438020C003034306207A
:1015D000205604305B4D2768AF4200D008214118E7
:1015E0003F2900D994E058480340C9030B43202108
:1015F0000B4310398B43082020564946891906258C
:1016000065570835AD002768BC46AC440C9DAD0855
:10161000AA1A8001A025ED05A8464044654605604C
:1016200041608260C3602168062020560B68012259
:101630008240934313430B600722A2569301A021DB
:10164000C9058C4663441B69DB01F7D40822A25606
:101650009301A021C9058C4663441B69DB01F7D4C3
:1016600032000021484606F081FB236806216156BE
:101670004A005218D2009B18D833344A1A60FFF738
:10168000F7FC002003B0F0BCBB46B246A946A0461A
:10169000F0BD002B00D078E605204042F2E7002E96
:1016A00004D00C9B9E4201D24D467AE6284B294A33
:1016B000EA21294804F0E8FB284B264AF021264875
:1016C00004F0E2FB264B234AF121234804F0DCFB23
:1016D000244B204AF221204804F0D6FB224B1D4A1D
:1016E000F3211D4804F0D0FB204B214AC42121489E
:1016F00004F0CAFB080031E71F4B204AB6211D4801
:1017000004F0C2FB194B1A4AC4211A4804F0BCFB6E
:10171000194B1A4AB621174804F0B6FB7F00FEFFAA
:1017200020600000406000004404000010801F00A2
:10173000FF87FFFF3FF8FFFFFFFFBFFFFFFFDFFF58
:10174000FFFF7FFF00002050FF7FE0FF03A00000AD
:1017500000E1021068E30210B4E0021024E102107C
:1017600038E1021050E1021068E102107CE1021041
:101770004CE302109CE10210ECE1021034E3021091
:10178000002D00D171E7A946AB0700D0FDE0B307FB
:1017900000D001E122680621615613680127380054
:1017A0008840834313600622A256052565576B1CAB
:1017B000984650008118C90023689C466144CC318A
:1017C0000B687F490B40E9010B43414609030B437A
:1017D0008018C00062461218CC3213600622A2564E
:1017E00053009B18DB00D0331A0023689C466244E8
:1017F00080235B011343802212061A601A600621BF
:101800006156802252041300206806F027FE06234A
:10181000E35604333900994080239B0122681A4320
:1018200011600622A2560832390091400A00216850
:101830000B431A600623E356F200013A04339B007F
:1018400021685A500622A25653009B18DB002268DA
:1018500094466344D8335B4A1A600623E356043344
:101860009B00002221685A500622A25653009B1862
:10187000DB00226894466344D833534A1A60062139
:1018800061560523E3561F221A404B005B18DB000C
:1018900021688C466344D8331A600720205687405D
:1018A000A022D205494BD7508301A022D2059446ED
:1018B0006344DA6880235B04110019401A42F3D1B3
:1018C0000722A256424B0C2A6DD842480340D2024E
:1018D00013430C229343043A13433F4A13403F4AB5
:1018E00013403F4A1340012213433E4A1340022251
:1018F00093438022D20313430622A2563A48256816
:10190000854200D0082151183F2952D8374A134048
:10191000C9030B430722A2560621615604318900F0
:10192000206884466144B6089201A020C005844620
:1019300062444846106051609660D3600622A25609
:1019400018320123190091400A0021688A6020683A
:10195000062565570168AB4099430B430360236834
:101960009B681A42FBD02168062020560B68012292
:10197000824093430B600621615620680023009348
:101980000133182206F0B8FD6FE61E21184B194AE4
:10199000FF31194804F078FA8F21184B154A490095
:1019A000154804F071FA164B164AC421164804F083
:1019B0006BFA164B164AB621134804F065FAC04676
:1019C0007F00FEFF20600000406000004404000033
:1019D00010801F00FF87FFFF3FF8FFFFFFFFBFFFE3
:1019E000FFFFDFFFFFFF7FFF00002050FF7FE0FFD2
:1019F00038E1021068E30210B4E0021024E10210A2
:101A00007CE102104CE302109CE10210ECE10210B8
:101A100034E3021010B5172002F0E0FCD0242406B5
:101A200080231B04636200220121172002F02AFC9C
:101A3000182002F0D3FC80235B046362A3611920A9
:101A400002F0CCFC80239B046362636110BD70B51F
:101A5000D024240680252D04A561142003F088FDE0
:101A60006561FA2003F084FD182002F0B7FC8023A2
:101A70005B04A36270BD000070B584B005000E0069
:101A800014000822002102A806F070F9012E18D0D7
:101A900036078023DB053343E2020D4C224013431B
:101AA000042213435BBA02930823009302AB002184
:101AB0002800FFF75DFC002801D1039840BA04B06C
:101AC00070BDC121034B044A4900044804F0DCF90D
:101AD00000F8FF0F00E2021020E30210B4E0021051
:101AE00030B587B001291DD00024231D09078025AA
:101AF000ED052943D2020D4D2A400A4313430393B7
:101B000023000833009303AB04220021FFF730FCCD
:101B1000002805D1002C07D002239B0003AA985867
:101B200007B030BD0424E0E70123F6E700F8FF0F1B
:101B300030B587B001291DD00024A31C09078025DA
:101B4000ED052943D2020D4D2A400A431343039366
:101B500023000833009303AB04220021FFF708FCA5
:101B6000002805D1002C07D002239B0003AA985817
:101B700007B030BD0424E0E70123F6E700F8FF0FCB
:101B800030B587B001291DD00024631C09078025CA
:101B9000ED052943D2020D4D2A400A431343039316
:101BA00023000833009303AB04220021FFF7E0FB7E
:101BB000002805D1002C07D002239B0003AA9858C7
:101BC00007B030BD0424E0E70123F6E700F8FF0F7B
:101BD00010B584B00C07C02109062143D202084C7D
:101BE00022400A4304210A4352BA02925BBA039389
:101BF00000230093082202A9FFF7BAFB04B010BD2E
:101C000000F8FF0F30B585B00D07C02424062C4323
:101C1000D2020E4D2A40224304242243029203930F
:101C2000012907D000230093082202A9FFF7A0FB97
:101C300005B030BD06490434445006494250064AB6
:101C4000835085231B018268C250EBE700F8FF0F29
:101C50004C080000440800004808000030B585B07A
:101C60000D07C02424062C43D2020E4D2A402243E5
:101C70000224224302920393012907D000230093F8
:101C8000082202A9FFF774FB05B030BD06490634EF
:101C9000445006494250064A835085231B018268FE
:101CA000C250EBE700F8FF0F4C08000044080000AA
:101CB0004808000030B585B00D07C02424062C4329
:101CC000D2020E4D2A402243012422430292039362
:101CD000012907D000230093082202A9FFF748FB3F
:101CE00005B030BD06490734445006494250064A03
:101CF000835085231B018268C250EBE700F8FF0F79
:101D00004C0800004408000048080000F0B583B00B
:101D100005001E00012933D001293FD00020F71C07
:101D200003239F437C1EFF23DB009C4238D2831990
:101D30009C464442444109078023DB051943D302F2
:101D40001D4A13401943634619430434A4002C1957
:101D5000231D6160C019021D009204220021280089
:101D6000FFF706FB041E22D129001C31089B994273
:101D700003D03200180005F0FFFF200003B0F0BDD3
:101D8000402B04D89B18802000028342C4D9F32141
:101D90000A4B0B4A49000B4804F076F80420BEE7D2
:101DA000EA21094B064AFF31064804F06DF80100AC
:101DB000064806F087F9E0E700F8FF0F1CE2021082
:101DC0000CE30210B4E0021060E2021088E202109C
:101DD000F0B5D646474680B583B005000F00904663
:101DE0009A46012934D05346DE1C03239E43721EBB
:101DF000FF23DB009A4239D2022F3DD028001C304D
:101E00000A9B98424DD00A9B984204D8334BEB185A
:101E10000A9A93425AD83B07C02109061943434600
:101E2000DF022F4A17400F4353461F43AF6152460C
:101E30000A9905F0A1FF29001831321D00230093F3
:101E40002800FFF795FA03B0C0BCBA46B046F0BD13
:101E5000402B04D84344802212029342C3D98021EC
:101E6000204B214A8900214804F00EF8204B1E4ADD
:101E700020491E4804F008F8FA24A4002000013C80
:101E8000002806DD082200212800FFF729FE83062E
:101E9000F4D5002CB2DC184806F0E4F806204042E5
:101EA000D1E73F07C0231B063B434246D7020C4AFB
:101EB00017403B4352461A43AA6129001831321D8C
:101EC000002300932800FFF753FABCE787210B4B50
:101ED000054A8900054803F0D7FFC0461C080000EA
:101EE00000F8FF0F1CE20210F8E20210B4E002104A
:101EF00060E2021002020000C8E80210A4E2021030
:101F0000012805D0022801D0002070470148FCE7D5
:101F10000148FAE70040101800301018F8B5070023
:101F20000C0016001D000B884988C9430904090CE0
:101F30008B4225D10B2B29D9817B227A91422BD13F
:101F4000237ABB7362790F231340022B06D8627A7F
:101F50007B7BD31ADBB2142B00D87A7320880C2831
:101F60001ED062790F231340012B52D0022B39D09F
:101F7000002B1BD03F4806F075F80B204042F8BDFF
:101F80003D4806F06FF802204042F8E73B4806F073
:101F900069F803204042F2E7394806F093F8CFE7AA
:101FA000384806F05FF804204042E8E71B280DD9C6
:101FB000E379E3185A8911003A8A8A420CD1103326
:101FC0001C1B001B30602B600020D8E72E4806F059
:101FD00049F805204042D2E72C4806F073F8062065
:101FE0004042CCE710280ED9E379E3189A78D978E3
:101FF000890004315B181C1B041BD0072043306090
:102000002B600220BBE7224806F02CF80720404254
:10201000B5E710281CD9E379E318DA789200043286
:102020009B181C1B041B1A7B882A1DD15A7B6C2A07
:102030001DD1DA7C002A11D11A7D102A0ED15A7DC9
:10204000182A0BD1183C346018332B60012096E716
:10205000104806F007F80820404290E70E4806F0C6
:1020600001F80A2040428AE70920404287E7092018
:10207000404284E7B8E40210A0E30210B8E3021083
:10208000D4E30210FCE302101CE4021040E402104E
:1020900068E4021088E40210A8E40210F8B5CE4605
:1020A000474680B50700B023C35AB42286589A1910
:1020B000016C8A4207D804003C34E418A6190023B6
:1020C0009946984606E001235B4283602DE0A046D6
:1020D00002356419B44212D222786578AB1CE31839
:1020E000B342F5D8302AF2D0DD2AF1D1A01CD93A7A
:1020F000104926F037FD0028EAD1A146E8E743461B
:10210000002B00D004234A46002A01D002221343A8
:102110004C22BA5AD20601D5012213438421785A9F
:10212000FF2202407A528822BB54C0BCB946B04656
:10213000F8BDC0469CE90210F8B58D1E0330860834
:102140000A002B0006E0108854882404204301C3B1
:102150000432013E002EF6D18C1E0B881A021B0A97
:1021600013430B8061680A0E0B0AFF273F023B40B6
:102170001A430B02FF26360433401A4309060A436A
:102180006260A068010E030A3B401943030233401A
:10219000194300060143A160E068030E9C46030A50
:1021A0003B4067463B4307023E4033430006034340
:1021B000E360452A01D02800F8BD0829FBD128009A
:1021C000FFF76CFFF7E7000010B5012906D1012BDE
:1021D0000BD0042B0CD1FFF783FC10BDAC21084BB6
:1021E000084A4900084803F04FFEFFF7C9FCF4E72E
:1021F000AE21064B034A4900034803F045FEC046A2
:10220000C8E4021040EA0210E4E4021020E50210E3
:10221000F8B5CE46474680B505008946002916D157
:10222000002426001E4F23003A0001212800FFF75A
:1022300041FD23003A0001212800FFF73BFD4B46FA
:10224000002B06D003239846032700240FE0012427
:10225000E7E7012398460027F7E70120FEF780FD16
:1022600033000F4A01212800FFF724FD01343F2CE1
:102270000DDC0B4A01212800FFF782FC0028ECDB73
:1022800043460340BB42E8D1FF28E6D003E049467D
:10229000044805F017FFC0BCB946B046F8BDC046BB
:1022A0001F0001002CE5021010B501235940C9B2EE
:1022B000FFF7AEFF10BD000010B5012907D1012BBB
:1022C0000CD0042B0ED1029BFFF79CFC10BDB1215A
:1022D000084B094A4900094803F0D6FD029BFFF765
:1022E000E9FCF3E7B321064B034A4900034803F036
:1022F000CBFDC046C8E4021030EA0210E4E402104C
:1023000020E5021030B583B00500CC0BE4038368F0
:10231000A3420FD063401B0E0ED1AB686340FF2277
:102320001204134210D1AB686340FF221202134221
:1023300013D1AC6003B030BD230E009301230B4AD0
:102340000121FFF7B9FFE8E7230C00930123084AB6
:1023500001212800FFF7B0FFE5E7230A00930123DE
:10236000044A01212800FFF7A7FFE2E70C00010063
:102370000B0001000A00010070B505000C001600FA
:10238000FFF7C0FF6404620C042E0CD0330001215F
:102390002800FFF719FF0400C02149052800FFF7B6
:1023A000B1FF200070BD80231B021A43EEE700003E
:1023B00070B504000800FFF7A3FD80231B01C518BA
:1023C000012229002000FFF7D7FF01222900200069
:1023D000FFF7D2FFC30701D5002070BD024805F00A
:1023E00041FE06204042F8E750E5021070B50500B6
:1023F0000800FFF785FD04008123DB00C1180122DE
:102400002800FFF7B9FF03230340012B09D18023E4
:102410001B01E11801222800FFF7AEFFC30704D417
:1024200070BD044805F01EFEF1E7024805F01AFEF3
:10243000F6E7C0466CE50210F0B583B005000C006D
:1024400016001F00FFF75EFF6404620C042E0CD020
:102450000097330001212800FFF72EFFC021490516
:102460002800FFF74FFF03B0F0BD80231B021A4383
:10247000EEE7F8B504000D001600FFF799FF2800FD
:10248000FFF73EFD05008123DB00C718002E26D094
:102490002323012239002000FFF7CEFF012239005B
:1024A0002000FFF769FF80231B01E91800230122A8
:1024B0002000FFF7C1FF0120FEF752FC002E10D0D4
:1024C0002123012239002000FFF7B6FF0122390045
:1024D0002000FFF751FF0120FEF742FCF8BD032367
:1024E000D7E70123EDE70000F0B5DE4657464E463C
:1024F0004546E0B585B08146039114009B46130024
:10250000FF33FF22934398465B46002B2FD1402395
:102510000293039B002B4AD15B46002B2FD10E9BCD
:102520009C466444474BE518C824A4002700103F8C
:102530002B191A00123A1278113B1E7836021643F4
:10254000FA235B009E4234D22C19133C2378002BD3
:102550002FD15024A64221DD381B03382818092228
:10256000394926F073FD00281AD00134F2E780259E
:102570002D012900354805F0A5FD0295C9E7661E25
:10258000760A4D461C350E9B991901390222280006
:10259000FEF766F9013E7602A41BC7E701246442F8
:1025A000631C06D0381B0338281805F05BFD002497
:1025B00023E0274805F056FD062040423BE0029EFE
:1025C000039BE1184D046D0CAA1980231B029A424B
:1025D0001CD84846FFF796FE5B46002B1DD10E9B8C
:1025E0009A46A2445346009333002A0001214846EC
:1025F000FFF7EEFB00281ED13C0044451AD2029B97
:102600001F194745DBD943461E1BD9E7ED21114B66
:10261000114A4900114803F037FC1C234B449A46E9
:10262000610A0E9B9C466144029B5A0A5046FEF783
:1026300017F9D7E7002005B0F0BCBB46B246A94663
:10264000A046F0BDE0FCFFFFB8E5021080E50210F7
:10265000C4E50210ECE5021018EA0210E4E40210EE
:10266000016000238360037301224273837303823A
:1026700000228274C274842212018350704710B504
:10268000FEF7FEFC10BD10B50400002909D0837CC4
:10269000002B00D110BD002383740121FFF704FE3D
:1026A000F8E701F0F9FBA37C002BF3D10021200017
:1026B000FFF7FAFD0123A374ECE70000F0B585B045
:1026C000070003911500C37C002B05D1006801F0C1
:1026D000DBFB002800D189E000213800FFF7D3FFA1
:1026E000FB7C002B0ED000260020FA239B009E428C
:1026F0002CDA082200213800FFF7F2F9431C25D11B
:102700000136F2E7042200213800FFF711FA060033
:1027100084B2394B1B88A34204D00104090C8623E0
:102720000B4208D1002C0AD1334B1C80B306DAD4FB
:102730000120404236E0314805F0C4FCF2E72300B6
:10274000042200213800FFF789FAEDE7431C50D03E
:10275000C30538D5430A5B055B0D591EC022D20064
:10276000914221D282071FD43E001C3600960022DF
:1027700002213800FFF7CAFA002813D1B98B0029CB
:1027800002D1FB8B002B23D00123FB74FA8B0800B2
:1027900050401B4B984223D12B00039A3100380044
:1027A000FFF7BCFB05B0F0BD1900164805F08AFC28
:1027B0000123154A01213800FFF77CFA0023FB743E
:1027C00001204042EEE70023FB7401204042E9E78C
:1027D0000E4805F077FC0023FB7401204042E1E73E
:1027E0000B4805F06FFC01204042DBE7012040422E
:1027F000D8E701204042D5E796DA002034E60210FF
:10280000FFFF000060E602100D00010080E60210EC
:102810009CE6021010B582B004000BE0019900980C
:10282000FFF78AFC0100200001F03CFB02E00E48AB
:1028300005F048FC01AA69462000FFF73FFF0100B0
:10284000431C0ED0031DF5D00128E7D00228EED19D
:10285000009AD10F52005208019B206801F0D8F86D
:10286000E8E702B010BDC046C8E60210F0B5D64693
:102870004F4680B587B004008A4603921E000029A7
:1028800002D0022900D08EE000212000FFF7FBFEDD
:10289000A37B002B28D1627B237B9A4224D0039B0D
:1028A0000C339AB23280D2437280227B327152460C
:1028B00072710022B2715246022A00D171E00C22DC
:1028C000F271002232727272B272F272227B0132A3
:1028D00022730096002202212000FFF779FA07B048
:1028E000C0BCBA46B146F0BD02F0DEFE002913DBE3
:1028F00018D0FA229200002304F056FE0100A27BB9
:10290000237B607B0090294805F0DCFB284B9F6A05
:10291000284B9946B94426E0274B284A3F212848AE
:1029200003F0B2FAFA21890004F000FE0100E6E7A4
:10293000A17B227B637BE81B0090224805F0C2FB51
:10294000A94617E005990498FFF7F6FB010020005F
:1029500001F0A8FA15E0ED1B1B4B9D4219D8FA2097
:102960008000FEF7F9F8124B9D6A4B46EA1A174BA6
:102970009A42DDD805AA04A92000FFF79FFE01288E
:10298000E0D0A17B0029E6D1627B237B9A42E2D092
:1029900085E7227B637B0E4805F094FB01204042D3
:1029A0009DE70C328CE70520404298E7ECE60210E8
:1029B000004005406079FEFFF8DB021050EA02108B
:1029C00014DC021008E7021040420F009F8601004D
:1029D0002CE7021070B505001400180004AA137843
:1029E000260012368022120196421FD82A22202663
:1029F000AE5400262A002A3256709170D670002BF1
:102A00000DD0A2B2002329002E3107F0E7FC2B00E5
:102A10001C33A21D02212800FFF728FF70BD2200F1
:102A2000010028002E3005F0A7F9F0E7052040420C
:102A3000F4E7F8B506001F0018001C3080231B01C6
:102A400098421ED8358A0135ACB2348224040C4336
:102A5000079B19030C43B2623B041B0CF362346303
:102A600000237363300038303A00069905F084F98A
:102A700033001C333A00103200213000FFF7F6FE1D
:102A8000F8BD05204042FBE7F0B5CE46474680B58D
:102A900085B00500884691461F000D9B01930C9B55
:102AA00000933B00FFF7C5FF234B9E6A14E0029A98
:102AB000BA4200D93A0003990C9826F077F834E02E
:102AC00003990298FFF738FB0100280001F0EAF9AA
:102AD000FA208000FEF740F8174B9C6AA41B174BA6
:102AE0009C421AD803AA02A92800FFF7E7FD041E9A
:102AF000DDD00128E4D0022806D00028E8DB010060
:102B00000F4805F0DFFAE3E7029AD10F52005208AE
:102B1000039B286800F07CFFDAE73B004A46414609
:102B2000084805F0CFFA01246442200005B0C0BC7B
:102B3000B946B046F0BDC046004005403F420F00D8
:102B400050E702107CE7021030B583B014004D004E
:102B50004A0802212940069D019500932300FFF7B2
:102B600093FF03B030BD0000F0B5DE4657464E4639
:102B70004546E0B583B005008A469046382399461D
:102B8000814400262BE02C4F8023DB009B46B3447E
:102B9000C3452BD28024E400284908220831484646
:102BA00005F0EAF84023EF5202330222EA526C6445
:102BB0000027AF6428004C3031005144220005F05A
:102BC000DBF823001B330722934301320197494668
:102BD0000091FF3202212800FFF756FF5E4646456E
:102BE0000AD2002ECFD080277F01CDE704231F43D8
:102BF000BFB243469C1BCFE710491322143148460D
:102C000005F0BAF88322002301934B460093132367
:102C1000520000212800FFF737FFAB6B002B06D1D5
:102C200003B0F0BCBB46B246A946A046F0BD04487E
:102C300005F048FAF4E7C046021000009CE90210D3
:102C4000A8E70210F0B5D6464F464646C0B582B05A
:102C500007008A46140099463823984680440800A5
:102C600026F0C6F90600451C2A005146404605F0EC
:102C700083F845442C70230A6B70230CAB70240E30
:102C8000EC70731D08224946019141460091FF32C4
:102C900002213800FFF7F8FE02B0E0BCBA46B146A8
:102CA000A846F0BDF0B5CE46474680B583B00500D6
:102CB00088461600994607003837080026F098F92C
:102CC000441C38193200494625F070FF2200414665
:102CD000380005F051F8A31908220A9901910097CC
:102CE000FF3202212800FFF7CFFE03B0C0BCB94677
:102CF000B046F0BD70B582B0040038343825435575
:102D00001E0A013546551E0C013546551B0E013570
:102D10004355069B019300940423FFF7B5FE02B0D0
:102D200070BDF0B5D6464F464646C0B582B0804627
:102D30008A4615001C00382343449946080026F0B3
:102D400057F90600471C3A005146484605F014F86A
:102D50004F443D702B0A7B702B0CBB702D0EFD7009
:102D6000721D4A441470230A5370230C9370240E6E
:102D7000D4703300093308220A9901914946009121
:102D8000FF3202214046FFF77FFE02B0E0BCBA46A8
:102D9000B146A846F0BD0000F0B5C64600B582B009
:102DA00004000D000600383677490822283130002B
:102DB00004F0E2FF2B041A0CD2B2402162541B0E25
:102DC000013163540020013160540021433021540B
:102DD000280C00D0C5E0FF30442560550135605512
:102DE0000135605501356055482022544922A354CD
:102DF00000254A23E5540133E154413A01950096F8
:102E0000373BFF3202212000FFF73EFE3220FDF764
:102E1000A7FF5D4907223431300004F0ADFF832263
:102E2000019500968023520000212000FFF72CFE20
:102E30003100564805F046F9009500234022022152
:102E40002000FFF757FF0023002251492000FFF721
:102E5000F9FE002301224F492000FFF7F3FE002373
:102E600008224D492000FFF7EDFE002304224B49C4
:102E70002000FFF7E7FE0023002249492000FFF76A
:102E8000E1FE484B9B6A6068191A474A914200D894
:102E900072E020004E301322FF2104F067FF502221
:102EA000A35C08218B43A35408318B43A354033202
:102EB000A35C0127BB43A3548B43A3540132A35CFF
:102EC000303188468B43A3540232A15C7F230B40F0
:102ED000A354443A3549300004F04EFF082200253F
:102EE000019500962923FF3202212000FFF7CCFD37
:102EF0003220FDF735FF3823E7540133E554013321
:102F0000E5540133E5540133E7540133E55401330B
:102F10005E22E2540133E5544346E55401339D32C9
:102F2000E25420004230C53A002104F01FFF009512
:102F3000330040221E492000FFF7B4FE3220FDF787
:102F40000FFF019500950023022202212000FFF7C8
:102F50009BFD3220FDF704FF002002B080BCB84684
:102F6000F0BD4427E0552D0E452025540020462570
:102F700060550135605537E7C01A0E4B9C466044DA
:102F8000FDF71EFF85E7C0469CE90210C0E702106E
:102F9000C4E70210D0E70210D8E70210E8E70210F9
:102FA000F4E7021000400540EF49020004E8021077
:102FB00018E80210F049020070B582B004000D005C
:102FC000060038360D4914223C31300004F0D4FE9E
:102FD0008322002301930096143352000021200025
:102FE000FFF752FD041E02D0200002B070BD062281
:102FF0003100280004F0C0FEF6E7C0469CE902104C
:10300000F0B5C64600B586B005000E00B94B9B6A08
:103010004360FEF767F8041E12D1FEF7FBFCFEF7D3
:1030200016FD092C4ADC142200212800FEF724FD9D
:10303000B14B984208D00120FDF792FE0134F0E731
:10304000AE4805F00FF83CE0AD4B0022002128000F
:10305000FEF7BEFD002834D1002200212800FEF733
:103060003FFD04231D2200212800FEF723FE002837
:1030700027D19923042200212800FEF71BFE0028F7
:103080001FD1BE23062200212800FEF7E7FD071E00
:1030900017D108239B4A01212800FEF70BFE3C00B4
:1030A000092C6BDC974A01212800FEF769FD4306D5
:1030B00011D40120FDF754FE0134F1E7924804F0E9
:1030C000D1FF924804F0CEFF06277F42380006B0B9
:1030D00080BCB846F0BD00238A4A01212800FEF7D3
:1030E000E9FD002201212800FFF762F900220221F8
:1030F0002800FFF75DF9002202212800FFF7B9F947
:103100000323042282492800FFF796F900230422B2
:1031100080492800FFF790F97F4B984600930023E1
:103120007E4A00212800FFF7DFF9C0227C4B009384
:10313000002392007B492800FFF7D6F97A4B04223E
:103140007A492800FFF778F9002201212800FFF7CB
:1031500090F901212800FFF749F93C00FA239B0070
:103160009C422EDA674A01212800FEF709FD03067A
:103170000AD40120FDF7F4FD0134EFE76C4804F0B8
:1031800071FF06277F42A1E7F02304226949280046
:10319000FFF752F92023684A01212800FEF78AFD33
:1031A0003C00FA239B009C4274DA0822002128008C
:1031B000FEF796FC83060AD40120FDF7D1FD013409
:1031C000EFE75E4804F04EFF06277F427EE75C4C47
:1031D000220001212800FEF7D3FCC3B202200343E2
:1031E000DBB2220001212800FEF764FD0823F02253
:1031F00000212800FEF75EFD0223424A012128003B
:10320000FEF758FD4F4A01212800FEF7B9FCC3B272
:10321000C20745D54C4C0F23220001212800FEF7A0
:1032200049FD0023220001212800FEF743FD220072
:1032300001212800FEF7A4FC042200212800FEF74B
:1032400077FC83B2C20734D400212800FFF71BFAB1
:10325000DB2189024144F62292002800FFF784FC1A
:103260000023002239492800FFF7ECFC002301224B
:1032700037492800FFF7E6FC002E20D0002E00D1B1
:1032800024E7002300933300062232492800FFF789
:1032900009FD1BE7304804F0E5FE06277F4215E7ED
:1032A00001221343DBB2274A01212800FEF702FD69
:1032B000B0E7042200212800FEF7D0FCC4E7274B2A
:1032C0001A0054325B6D0293928802AB9A8004A973
:1032D0002800FFF771FE002806D1062202A904A8E3
:1032E00025F040FC0028C9D104A90020FDF7BCFA54
:1032F00004AEC3E700400540ADBEEDFE24E8021079
:10330000B30402000E00010040E802105CE8021065
:103310001040001844400018705D0310BE6B03009D
:1033200068EA0210FCFC0700C0003FFFFCFF07003A
:103330007CE802102420001808000100A8E8021010
:103340001E0001001F0001000F000100C4E7021071
:10335000D0E70210D8E80210C0E802109CE9021081
:10336000F0B5D6464F464646C0B582B004000E00C2
:103370001D00002A03D0C82A02D9C82200E0012279
:10338000900082185200002325492000FFF75AFCC4
:1033900000232A0023492000FFF754FC00230A9A47
:1033A00021492000FFF74EFC00230B9A1F49200003
:1033B000FFF748FC0025009533005622022120002B
:1033C000FFF798FC2600383638239A46373B52469A
:1033D000A35438339946E55401339846E5543B27C6
:1033E000E55501950096363B363202212000FFF765
:1033F0004BFB5346E5544B46E5544346E554E555EF
:1034000001950096363B8E2202212000FFF73CFBFF
:10341000002002B0E0BCBA46B146A846F0BDC046A6
:10342000E8E80210F8E8021004E9021010E90210BE
:10343000F0B5DE4657464E464546E0B5A3B005001A
:103440000E00904699462D9C002308228249FFF7E2
:10345000F9FB631C00D1C4E0804B9C4200D1CCE05E
:103460007F4B9C4200D1CBE07E4B9C4200D0EFE0F2
:1034700004239A46FF232340002700978622022137
:103480002800FFF737FC23005A1E934100970022C3
:1034900075492800FFF745FC012300975B42002295
:1034A00072492800FFF73DFC0097714B00227149DB
:1034B0002800FFF736FC002C00D0A4E00024009484
:1034C0000123142202212800FFF714FC009400239A
:1034D000162202212800FFF70DFC00945346A52276
:1034E00002212800FFF706FC634BEC18F3B29B4661
:1034F000614B5A46EA54330ADBB299465F4B4A465F
:10350000EA54370CFFB25E4BEF54330E9A465D4BD4
:103510005246EA54320041460133E81804F02CFCCC
:103520002E9B002B00D188E002AC46220021200017
:1035300004F01CFC5B4623704B466370A770534637
:10354000E3703200414603A804F016FC0026242351
:10355000E654DB332822A3540132A3540132A3548E
:103560000132A3540132A3540132A3540132A354B3
:103570000132A3540132A3540132A3540132A354A3
:103580000132A3540132A3540132A3540132A35493
:103590000132A354313A2E9910A804F0EDFB4023D8
:1035A0000122E2540133E6540133E6540133E65478
:1035B0002F9B9AB280235B0113434422A3541B0A1E
:1035C0000132A3540096230001322F492800FFF74F
:1035D00069FB002023B0F0BCBB46B246A946A0461A
:1035E000F0BD2C9B002B04D04B46002B03D14C4646
:1035F00036E7002434E71A4C32E780239A4639E74D
:1036000080239A4636E702AC4B4623701B0A637050
:103610000123A370E7704A462C9903A804F0ACFB81
:103620000220FDF79DFB862201970094442352005F
:1036300002212800FFF728FA40E7002301930094B5
:1036400024331A2202212800FFF71EFA0020C1E7C6
:1036500001204042BEE7C046D8E702100400400007
:10366000060040000200200020E9021030E90210AC
:10367000C409000048E902101C0800001D080000F1
:103680001E0800001F0800005CE9021000B583B0AE
:10369000002300930433A5220221FFF72BFB03B084
:1036A00000BD000000B583B0054BC3180022019295
:1036B000009324231A320221FFF7E6F903B000BD7C
:1036C0001C080000F0B5DE464F464646C0B584B043
:1036D00004000E0003929846050038355A4904222A
:1036E0005C31280004F048FB3C239946A1440122A8
:1036F000E25400233C32A3540132A3540132A354B8
:103700004432019300950833520000212000FFF756
:10371000BBF93823E05C0133E35C1B0218433A2316
:10372000E35C1B0418433B23E35C1B06184306D0F1
:10373000002004B0E0BCBB46B146A846F0BD002363
:10374000022242492000FFF77DFA38230122E25489
:1037500000270133E7540133E7540133E7540133C1
:10376000E654320A0133E254320C0133E254320E91
:103770000133E25423004033202200219B461800ED
:1037800004F0F4FA32000399584604F0F5FA009771
:103790002B0028222E492000FFF784FA00970E9B69
:1037A0001E2202212000FFF7A5FA009743460122BE
:1037B00028492000FFF7B5FA4346002B2BD0264BB3
:1037C00098453ED0842300260096012223492000FC
:1037D000FFF7A7FA38230C9AE254120A3923E2546D
:1037E00001270133E7540133E654402200214846C3
:1037F00004F0BCFA0C9A0D99484604F0BDFA022078
:10380000FDF7AEFA8622019700954423520002216B
:103810002000FFF739F90125009501236E220221CE
:103820002000FFF767FA012316220D492000FFF759
:1038300009FA009501234E2202212000FFF75AFACF
:1038400076E70423BFE7C0469CE90210D8E70210E0
:1038500064E9021070E90210020020007CE9021005
:103860008CE9021000B583B00B00002200920132F7
:103870000249FFF756FA002003B000BD98E9021094
:1038800010B5006800F000FB013843425841C0B257
:1038900010BD000010B504000A4B83610A4B436160
:1038A0000A4B038639233A22C2540233C15C020018
:1038B00032323039406A00F021FC38230622E254CB
:1038C000002010BDD1380010911B0110DC05000054
:1038D00010B582B002000B00406A3B21515C3039C8
:1038E0001A890124009400F0C5FB002802D10020B1
:1038F00002B010BD0100034804F0E4FB0C2040427C
:10390000F6E7C04650ED021070B588B006000D1EF7
:1039100037D100230493234B0693234B0593234B6A
:103920000793AB018D2212019C1834190434F3184B
:103930001F4A9A18772111702A0030321D498C468F
:1039400063441A701C4B02931C4B0193009606AB08
:1039500005AA04A9200006F0DBF8002C07D0AB0173
:10396000F3189022120194466344154A1A6020000D
:1039700006F062F9200006F065F9002D05D008B0C8
:1039800070BD104B04930693C7E707A9002005F00C
:10399000A5FB0D4BF11820000DF072FA20000DF080
:1039A000CFFBECE7C0A80001FFFFFF0008080808F4
:1039B0000E0900000F090000AD300110953800100D
:1039C00074ED0210C0A804015409000070B58D0107
:1039D0008D231B019C46654445190435002902D0FE
:1039E0000A4B1C6804E028000DF078FCF8E7246816
:1039F000002C09D0AC42FAD1200006F059F900237E
:103A000063603922A354F2E770BDC04600C80020AD
:103A1000F0B5CE4600B582B006000F0001938C01D0
:103A20008D231B01E318C3181D1D0419134B9C465D
:103A3000644423785B0703D402B080BCB946F0BD70
:103A400093B29946C12252001900002006F0D0FA24
:103A5000041EF1D04A46019906F00CFDBF01F6198B
:103A6000074B9C466644336829002000984700288D
:103A7000E2D0200006F078FADEE7C0460D0900002B
:103A8000E408000010B589018D231B019C466144A8
:103A90004018043006F03EF910BD10B589018D23A1
:103AA0001B019C4661444018043006F051F910BDDA
:103AB00010B58B01C3180B4A944663441A7805234A
:103AC0001340052B09D189014018074B9C466044DF
:103AD0000368002B04D0032010BD00F05FFBFBE760
:103AE0000220F9E70D090000D808000010B582B0E7
:103AF000FDF7F4F8224B1B68002B19D02148FFF783
:103B0000BFFE002816D11F4A1F4BD35C002B15D1D6
:103B10001C4A1E4BD35C002B1AD11A4A1C4BD35C97
:103B2000002B1CD11B4B1B68002B24D0FDF7C0F8C9
:103B300002B010BD1348FEF76DFEE4E7100000234D
:103B4000114A8354009300226921FEF7FDFFDFE74D
:103B500010000E4B0022C254FFF798FDDDE7140061
:103B60000B4B0022E2542000FFF79CFD86231B0133
:103B70000122E250D6E701210248FEF784FDD5E795
:103B8000281E0020301E00206D0800006F08000075
:103B90006E0800002C1E002010B5040001F084FD0A
:103BA000002917DB1CD0FA229200002303F0FCFC52
:103BB00001006288134804F085FA6168582915D815
:103BC0008B00114A9B58002B10D019000F4804F0AD
:103BD00079FA0EE00E4B0F4A3F210F4802F054F9DC
:103BE000FA21890003F0A2FC0100E2E70B4804F08F
:103BF00069FAA168E2682E23E35C094804F062FADE
:103C000010BDC0467CED0210F8EE0210C0E70210B5
:103C1000F8DB0210E0EE021014DC021090ED02104E
:103C200094ED0210F0B585B00400FDF757F8294B6C
:103C3000E35C002B0BD0284B1B68002B0DD0002120
:103C40002000FEF720FD0025280005B0F0BD234B25
:103C5000234A9021234802F017F900212000FFF7A2
:103C6000B5FE01212000FFF7B1FE1F4B0022E254F8
:103C7000D0252D0680263604AE611420FDF770F89D
:103C80006E613220FDF76CF800212000FFF7B8F9D3
:103C9000051ED9D1154BE1182000FFF78DF9134B04
:103CA000E15C134BE25C134BE35C1348205C134E66
:103CB000A65D134FE45D029401960090114804F054
:103CC00001FA114B32221A601048034B1860FCF7BE
:103CD000F6FFB9E76C080000281E0020A0ED0210D6
:103CE000D0EE0210BCED021054080000880900005C
:103CF000890900008A0900008B0900008C09000076
:103D00008D090000FCED02102C1E0020ED3A001081
:103D100070B505000E00FCF7D9FF2800FFF782FF01
:103D2000041E08D131002800FFF736F80400FCF724
:103D3000EBFF200070BDFCF7E7FFFAE770B584B039
:103D40000400FCF7C3FF2000FFF76CFF002816D12A
:103D50000C4BE15C0C4BE2180C4BE35C0C48205C18
:103D60000C4D651987263601A65D029601950090D7
:103D70002000FFF7A7FCFCF7C7FF04B070BDFCF7FD
:103D8000C3FFFAE772080000740800007108000021
:103D9000730800009408000070B504000D00FCF7E3
:103DA00095FF2000FFF73EFF002806D129002000E4
:103DB000FFF758FDFCF7A8FF70BDFCF7A5FFFBE778
:103DC00070B50400D0252D0680235B04AB62002271
:103DD0000021182000F056FA802636046E62002278
:103DE0000021172000F04EFAAE6121002000FEF7FE
:103DF00037FC00230C4AA3540C4AA3500432A350AE
:103E00000B4AA3540B4AA3540B4AA3540132032177
:103E1000A1540A4AA3540A4AA3540A4A13600A4BFB
:103E20000122E25470BDC046540800005C08000046
:103E30006D0800006E0800006F08000072080000A6
:103E400073080000281E00206C08000010B5040054
:103E5000FCF73CFF0B4B1B68002B10D0002120000F
:103E6000FFF7B4FD01212000FFF7B0FD2000FEF7B1
:103E700006FC2000FFF7A4FFFCF746FF10BDFCF78F
:103E800043FFFBE7281E0020D0231B065B681B0EA8
:103E90000120184070470000014B32221A60704721
:103EA0002C1E002070B504000D00694BC358DB07C1
:103EB00012D46B68452B13D00B2B26D0172B34D084
:103EC000002B49D1AB68002B27D0032B3CD0862395
:103ED0001B010222E25020E00800FFF75DFEE8E748
:103EE0005C4AA258012AE7D1AB68082B05D0002B09
:103EF00013D1584B0222E2500FE0574BE3582900F0
:103F00003031564AA058984707E000212000FFF7BB
:103F1000C4FD86231B010022E25086231B01E258C8
:103F20004F4B9A4200D189E070BDAB68002BF4D1B1
:103F3000EB68082BF1D1073B4A4AA3544A4AA354E1
:103F40004A48FCF7BCFEE8E7EB68002BBFD18623AC
:103F50001B010322E250E0E7032B16D0062B35D0DD
:103F6000102B40D02E2BD8D1AB68062B57D0042B6A
:103F700003D0082B01D00B2B02D1EB680F2B56D0AE
:103F800086231B010422E250C7E7AB68002B16D141
:103F900086231B01E2580F231340042B07D08622EF
:103FA000120180239B00A1580B43A350B5E70B33AC
:103FB0009A430E3B1A4386231B01E250EFE7062B80
:103FC000ABD086231B010422E250A6E7AB68002B8E
:103FD000A3D1EB68022BA0D1254B0122E254234848
:103FE000FCF76DFE99E7AB68002B96D16B88DB0779
:103FF0000FD52E23E95C002907D1862212018023E8
:10400000DB00A1580B43A35087E72000FFF73AFDE0
:1040100083E72E23E95C2000FFF73FFD7DE7862242
:10402000120180231B01A1580B43A35075E70D4BD0
:104030000122E2540D48FCF742FE6EE786231B0185
:104040000122E25000212000FFF71CFD6CE7C04672
:10405000580800005C0800006808000064080000C0
:10406000010E00006E0800006F080000ED3A00101D
:104070006D080000F0B585B00500029103921F00A5
:104080000AAB1E78FCF722FE2800FFF7CBFD041ECA
:104090000CD100963B00039A02992800FEF79AFC87
:1040A0000400FCF731FE200005B0F0BDFCF72CFE4B
:1040B000F9E770B582B006000C00FCF707FE30008F
:1040C000FFF7B0FD051E16D10F2001002140230986
:1040D000FF221A40230B0340250C0540240D044009
:1040E000019400953000FFF73BF90500FCF70CFE4A
:1040F000280002B070BDFCF707FEF9E710B511000B
:104100000020FCF7CBFB002010BD0000F8B5040038
:104110000D0016001F00FCF7D9FD002E2FD01D4BFF
:10412000E35C002B15D0012D21D01A4BE35C2B4111
:10413000DB0726D429002000FFF748FC29002000D7
:10414000FFF7E2FB0122AA401249635C1343635468
:1041500017E039002000FFF7DBFD002804D10E49ED
:104160002000FFF7A6FFDEE7FCF7CEFD0BE0200006
:10417000FFF7E4FD01212000FFF70EFED5E7012D3A
:1041800002D0FCF7C1FDF8BD00212000FFF704FEBE
:10419000F7E7C046540800004211A1000300081EC2
:1041A0000FD1862212019A580F231340012B0AD0F7
:1041B000022B0AD0032B0BD0042B00D070470338FE
:1041C000FCE70020FAE71800F8E701204042F5E795
:1041D00002204042F2E70000F0B587B005000591EB
:1041E00016001F00FCF772FD184BEB5CDB0724D5B3
:1041F0002800FFF717FD041E24D10F9B03930E9B8D
:1042000002930D9B01930C9B00933B003200059998
:104210002800FFF70DF9041E0AD186231B01012295
:10422000EA500D9B002B03D186231B01084AEA505C
:10423000FCF76AFD200007B0F0BDFCF765FD042423
:104240006442F7E7FCF760FDF4E7C046540800005D
:104250000108000010B58300084A944663441C68B6
:1042600040226240C02414408022520113431C604B
:10427000C000034B9C466044416010BD04C0014037
:104280000040014080000B4B9C46604400290DD04B
:104290000823002A0CD004221343026853400C2246
:1042A0001340802252011043036070470023F0E75F
:1042B0000022F1E704C00140002909D08000094B29
:1042C0009C46604480239B0118430223036070478F
:1042D0008000044B9C466044C0239B01184302238A
:1042E0000360F4E704C0014070B5D0231B061B68CF
:1042F0009D00094C2C59204207D19B002043064CBD
:1043000018510D2000F030F970BD044B044ACC2147
:10431000044801F0B9FDC046D4D700205CF002107B
:1043200018F1021088F0021010B50400D0231B060B
:104330001B689B000A4A9B5818420BD00D2000F0C6
:104340002DFAD0231B061B6805499B005A58A2432F
:104350005A5010BD034B044AD621044801F094FD85
:10436000D4D70020C8F00210F4F0021088F0021038
:10437000072303409B00C00899403C308000014B5C
:10438000C150704700400140F8B507000C0016000E
:104390001D00FFF7EDFFFB089B00ED1807203840DC
:1043A00080008440002E04D080239B011D432C609C
:1043B000F8BDC0239B011D432C60F9E710B5D02345
:1043C0001B061B68002B03D0024BFFF7DDFF10BD5F
:1043D000014BFAE7304101400041014010B5012393
:1043E0008340D0221206936293610521FFF732FFCA
:1043F00010BD0000074B9B68103080001950BFF3C0
:104400005F8FBFF35F8F044B0021196082F3108828
:104410007047C04600ED00E0240100D01F23181AA9
:104420007047000010B5091A081F0A4B9C466144EA
:10443000094A914208D8C30706D440104005400DF0
:10444000064B184380B210BD054B064A9921064819
:1044500001F01AFDFC070000FE0F000000E0FFFF66
:104460004CF10210ACF302107CF1021010B5091AE5
:1044700004394C08090B08D14905490D064A114376
:104480000180064B2343438010BD054B054AA12103
:10449000054801F0F9FCC04600F0FFFF00F8FFFFFF
:1044A000BCF1021080F302107CF102100123834062
:1044B000034A10681840431E9841C0B27047C04676
:1044C00000E100E0002904D0034B1860034B1860A2
:1044D0007047034B1860FBE780E200E000E100E07A
:1044E00080E100E010B5012383401800FFF7EAFFE8
:1044F00010BD000001238340014A13607047C0468D
:1045000000E200E0024B9B6810308000C05870470A
:1045100000ED00E070B504000D00EFF3108672B6F8
:104520000C4B1B68002BFBD0BFF35F8F2000FFF705
:10453000E9FF094B984201D0A84205D13200290079
:104540002000FFF757FF70BD044B054A7C2105484A
:1045500001F09AFC240100D0CD010010CCF1021032
:10456000E0F302107CF10210F0B5DE4657464E46ED
:104570004546E0B589B0814601911500EFF3108AF8
:1045800072B6744B1B68002BFBD0BFF35F8F724B6E
:104590000027DF57002F40DB7C00E419A4006F48A0
:1045A00024180622A2566C4B1A706D4B9A684B4623
:1045B00010339B00D35898461E001B1A2F2B38D956
:1045C000684B98452FD105AE674B33807B009B46E7
:1045D000D8198000614B9846404402306349FFF788
:1045E00021FF7080624BB380FF23B371F571019B93
:1045F00007935F44BF0047440ECE0EC701231C4300
:10460000A046524641464846FFF7F4FE09B0F0BCCA
:10461000BB46B246A946A046F0BD564B564ACD21F0
:10462000564801F031FC564B534AD421534801F00F
:104630002BFCC04340440C2102F078FF002912D12A
:1046400001239E43B34633000026DA79AA4211D9EA
:104650000621595600290CDB4A00521892001E0010
:104660003E4B9B18F1E7474B434AE021434801F09A
:104670000BFC1E00002E3AD005AB434A1A80813A4B
:104680005A800623F3560293002B17DA3F4805ABF6
:104690009B469880029A9A71DD71019A0792301DAB
:1046A0002100FFF7BFFEB080B7717B00DB199B00D4
:1046B0002A4FFF185B4607CB07C7A2E77800C0194F
:1046C0008000264BC0180430321DB388D90A1C293B
:1046D00007D15B055915023149005118FFF7A2FEB9
:1046E000D5E72B4B2B4AA721244801F0CDFB05AE83
:1046F0001D4B33807B000293D8198000174A9046E7
:10470000020042440392901C1849FFF78BFE708010
:10471000039A101D5946FFF785FEB0801E4B5A467E
:104720004146521A524153431B0DB371F571019A20
:104730000792029B9C466744BF0047440ECE0EC7BB
:10474000114B5A461380813B538001231C43A046E2
:1047500057E7C046240100D0AEDA00207C050020D7
:1047600000ED00E0CD01001000A1FFFFAC0500202E
:1047700001BDFFFF04F20210C8F302107CF1021029
:104780002CF2021054F202100148000001BD00009A
:10479000C8F20210B8F30210AAAA0000F0B5CE4683
:1047A000474680B583B006000D00EFF3108872B65F
:1047B000564B1B68002BFBD0BFF35F8F544B9A689E
:1047C00034001034A300D758524B9F4207D0AF4259
:1047D00000D198E00197504BFB1A2F2B09D9424684
:1047E00039003000FFF706FE03B0C0BCB946B04642
:1047F000F0BD3000FFF75AFE814600213000FFF780
:1048000071FEBFF35F8FEFF30581002901D08C4269
:1048100011D10123019C9C430022A368AB4212D01A
:104820000622A256002A0DDB53009B189B00220093
:10483000394CE418F1E72C21384B394AFF3139481B
:1048400001F022FB2200AB4256D106256557002D10
:1048500038DB6B005B199A002F4B9B189A68A2609B
:10486000DA79E27106229A56A2719B795BB2002B2B
:104870000FDA2D48A0806B005B199B00264AD318E5
:104880002A4A11789971157049463000FFF72AFEBF
:10489000A5E7201D6B005B199B001F4A9B181A1D82
:1048A0009B88D90A1C2907D15B055B150233590087
:1048B0005118FFF7B7FDDDE71D4B1E4AA721194828
:1048C00001F0E2FA002912D1002A0ED0FF239371E1
:1048D000194B9380154A1378A371184B0E49641A2B
:1048E000644163431B0D1370CEE70A4FF2E7201DAE
:1048F0001349FFF7BBFDC7E76021124B084AFF31A0
:10490000084801F0C1FA034F69E7C046240100D00E
:1049100000ED00E0CD0100107C050020E0F2021067
:1049200098F302107CF1021001BD0000AEDA002005
:10493000C8F20210B8F3021001BDFFFFAAAA0000DE
:10494000B605002004F3021010B5032304009C43B5
:10495000064A9446644422681840C000FC338340F1
:104960009A43130081400B43236010BD00E400E034
:1049700070B5012101432E4BCB1A2F2B28D8EFF312
:104980000583002B2BD0EFF3108C72B6294A1268E6
:10499000002AFBD0BFF35F8F274A0400244D641B1D
:1049A00064416243120D54B2244A92689B00D2586B
:1049B0008A421BD00022032A32D853009B189B0046
:1049C0001B49CB189B795BB2A3421FD00132F2E79F
:1049D000C2211B4B1B4A49001B4801F055FA882194
:1049E0001A4B184AFF31184801F04EFA134A9268E0
:1049F0001749D150174B1A7882711C70BFF35F8F23
:104A00000C4B00221A608CF3108870BD0D0053000F
:104A1000991889006918FF268E710F4A8A80E9E784
:104A2000CC210E4B074A4900074801F02DFAC04639
:104A30007C050020240100D0AAAA000000ED00E0BF
:104A40000CF3021064F302107CF1021034F3021034
:104A5000CD010010AEDA002001BDFFFF40F30210CF
:104A60000022044B02E0044902C30132072AFAD9AA
:104A70007047C04600E400E08080808010B5D023FD
:104A80001B061C68FFF7CAFC010002480019FCF76E
:104A900051FA10BD88DA002000B583B00100D023A0
:104AA0001B061B680648C018064B0093052300220E
:104AB000FCF717FA002801DB1F23181A03B000BD0A
:104AC00088DA002048F3021070B504000E001500CB
:104AD000FCF76AFA0100200000F006F8A680E580E5
:104AE000BFF35F8F70BD0000024B9C46614489009C
:104AF000016070474000003470B505000C000800EC
:104B000000F0C6FD200000F0CFFE0A49200000F0B2
:104B10000FFEFCF749FA084B9C4660448000686031
:104B20002C75D0231B061B786B75A400034BE55036
:104B300070BDC046454E00104000003408C800203B
:104B40000A4B1A68EFF3108172B61368002BFCD081
:104B5000BFF35F8F054B1B68BFF35F8F00221A60A6
:104B600081F3108840BF002000217047F8D9002051
:104B700010B5002922D003681B7B99421ED8174B21
:104B80009C466144090183689C4661440C684968FD
:104B9000002A19D003681B7B9A4215D883680F48F6
:104BA0008446624412019A1810685368020001207A
:104BB0008B4201D80ED00020C0B210BD084B094A6C
:104BC0003C21094801F060F9054B064A3C210648A2
:104BD00001F05AF9A242EFD8EDE7C046FFFFFF0F00
:104BE000C4F4021024F702108CF4021010B500294E
:104BF0001ED0037B99421BD84B005B18033B046813
:104C0000A4466344002919D0002A1DD0914221D026
:104C1000002A25D0047BA24222D8046850008018C4
:104C2000033820188170197800291FD11A7010BD1F
:104C3000104B114A6821114801F026F9104B114A16
:104C40006F310E4801F020F90F4B0E4A70210B48CE
:104C500001F01AF90D4B0B4A7121084801F014F9C3
:104C6000044B054A6821054801F00EF941701A709D
:104C7000DDE7C046F8F4021090F7021014F50210B8
:104C800060F502106CF702106CF5021078F5021056
:104C900070B506000D001400002914D0002A14D0AD
:104CA000806873689847002806D0220029003000E9
:104CB000FFF79CFF280007E02A0021003000FFF7E3
:104CC00095FF200000E0100070BD0800FCE7000028
:104CD000F0B583B00500009201930AAB1C780BABD2
:104CE0001F78002C26D003685A7B944207D10123F9
:104CF000002B19D1002C3BD1200003B0F0BD002CBB
:104D00000CD01A7B944209D81A6863001B19033B24
:104D1000D3189B78002BEBD00123E9E73E4B3F4AA9
:104D200068213F4801F0B0F83E4B3F4A66213F48BA
:104D300001F0AAF803689C7B002CDBD012D01A7B10
:104D400094420FD862001219033A19688C466244E3
:104D500051789973002900D1D9730023937053704F
:104D60001370C7E72C4B2D4A68212D4801F08CF8B1
:104D7000002C3AD02B681B7B9C4236D82C4BE31876
:104D80001B01AA6894466344009A1A60019A5A600B
:104D9000089A9A60099ADA602E68002C2BD030D0DD
:104DA000337B9C422DD863001B19033B3268944629
:104DB000634400229A705A701A70717B220030008E
:104DC000FFF766FF7073844200D095E7287D009A54
:104DD000019B00F0F5FC061E01D0002F17D00C9BA4
:104DE000002B00D188E71E7086E7124B124A3C2147
:104DF0000E4801F049F8114B114AA521084801F06D
:104E000043F8054B054A6821054801F03DF828683C
:104E1000210000F0FDFEE2E7F8F4021090F7021026
:104E200014F5021090F502109CF702108CF4021099
:104E3000FFFFFF0FC4F4021024F7021088F40210E1
:104E400080F70210F0B5DE4657464E464546E0B5BF
:104E50008BB00990002308938200AE4BD6583700E0
:104E600032E0AD4BAD4A3F21AD4801F00DF8AD4BFE
:104E7000AD4A3C21AD4801F007F8AD4BAD4A8D215C
:104E8000AA4801F001F8AC4BAA4A9121A74800F0CA
:104E9000FBFFA44BA94A4121A44800F0F5FF2A6872
:104EA0006B68099800F08CFC00239A4698467B6852
:104EB000BFF35F8F00221A6086F310884346002BF1
:104EC00051D1002800D11EE100F0EEFB02000B1EC4
:104ED000C7DB00200021069007917868EFF3108669
:104EE00072B601680029FCD0BFF35F8F396888462D
:104EF0004C7B002C32D0BAD0097B8C42B7D8904979
:104F000065182D01B9688C46654428686968801A5F
:104F100099410029C3DC01D10028C0D100214046BD
:104F200000F06CFEA042A8D12A686B680692079335
:104F3000AB689846EB689A464346002BA3D0002CFA
:104F4000A7D03B681B7B9C42A3D8631EFA68D35C46
:104F500008931B02184338610020A8E700239A46F3
:104F600098460020A3E7089B1B022343994651461D
:104F70001800C04705000E007A68EFF3108B72B678
:104F8000136859424B41D9B2002BF9D1BFF35F8F5F
:104F9000002E1EDB002E46DD3B69002B47D04B4523
:104FA00066D100F081FB02000B1E67DB52197341D2
:104FB000002B69DB002B6BDB002104910131039195
:104FC000029451460191414600913800FFF780FE5E
:104FD00045E03B69002BDDD04B4514D1069A079B79
:104FE000521BB341002B14DB002B16DB0021049174
:104FF00001310391029451460191414600913800DC
:10500000FFF766FE2BE04F4B4A4AA021474800F0CD
:105010003BFF012252424C4BE6E73F4B3F4A3F21C8
:105020003F4800F031FF002E01D1002DB4D13B6884
:10503000002C49D05A7B944230D10121002943D120
:10504000DA7B002A46D1DC73002C56D03B681B7BF0
:105050009C4252D8FA68013C135D0133135500237A
:105060003B617A68BFF35F8F13608BF310882BE787
:10507000344B304AA3212D4800F006FF264B274A27
:105080003F21274800F000FF012252422E4B91E7BA
:10509000214B224A3F21224800F0F6FE002C0DD081
:1050A0001A7B94420AD862001219033A186884469F
:1050B00062449278002AC1D00121BFE7234B244AE1
:1050C0006821244800F0E0FE234B244AF6212148C1
:1050D00000F0DAFE002A0AD0197B8A4207D8510074
:1050E0008A18033A19688C4662445470ABE7174B30
:1050F000174A6821174800F0C7FE0A4B0F4A4121A2
:105100000A4800F0C1FE0BB0F0BCBB46B246A9464F
:10511000A046F0BD08C80020F8DB0210F0F602102F
:1051200014DC0210C4F4021024F702108CF40210F4
:10513000B8F5021008F70210D0F5021048F7021077
:10514000FFFFFF0FDCF50210FFFFFF7FF8F40210F6
:1051500090F7021014F5021018F602105CF7021016
:1051600010B50A4B5B68002B04D00A210848FFF7F2
:10517000BBFC10BD054C2300064A1021206800F03E
:105180005DFC03212000FFF7B7FCEEE7C40500201B
:10519000F8D90020714B001010B5064B5B68002B4E
:1051A00001D0044810BD044B044A5D21044800F0BE
:1051B0006BFEC046C40500203CF6021030F702101A
:1051C0008CF40210F0B5DE4657464E464546E0B533
:1051D0008BB0804616001F00149B9A46159B99467B
:1051E00016AB1B789B461F2302AA944663440022F9
:1051F0001A702BE0002809D042461268127B9042B8
:1052000004D8421E4146C9688A5C41E0404B414A8D
:105210004121414800F038FE07984CE0361BAF4171
:10522000002F07DB002F11DA3C4B3D4A3F213D4860
:1052300000F02AFE012676423B4FF3E7374B384A0F
:105240003F21384800F020FE002F4FDB43465A68CC
:10525000EFF3108472B6136859424B41D9B20791EB
:10526000002BF8D1BFF35F8F1F3302AA944663442B
:1052700004930023039302934B46019353460093F8
:1052800032003B004046FFF723FD031EB2D102006F
:1052900041464968BFF35F8F00250D6084F3108895
:1052A000002B29D01F2302A98C4663441B78002BB6
:1052B000B2D112021043002B20D05B46002B1DD030
:1052C0004946D04704000D0003000B431DD00029C0
:1052D000A4DB00F0E9F906000F1EAFDB36196F41C1
:1052E000002FB1DA012676420F4FADE70B4B0C4A87
:1052F0003F210C4800F0C8FD012040420BB0F0BC3B
:10530000BB46B246A946A046F0BD0798F6E7C046A0
:10531000C4F4021048F702108CF40210F8DB0210FB
:10532000F0F6021014DC0210FFFFFF7FF8B5040056
:105330004268EFF3108572B6136858424341D8B201
:10534000002BF9D1BFF35F8FCBB22268567BB342FB
:105350001BD10120002848D0206988422BD0090A9F
:10536000C9B2002B2ED02068007B83422AD8581E59
:10537000E668305C88422BD000206368BFF35F8F03
:1053800000221A6085F31088F8BD002B0DD0167B23
:10539000B3420AD85E00F618033E1768BC4666445E
:1053A000B678002ED6D00120D4E7134B134A6821DB
:1053B000134800F069FD8621124B134A4900134837
:1053C00000F062FD124B134A4121104800F05CFDD1
:1053D0001900100000F01CFC0028CED114210E4B47
:1053E000094AFF31094800F04FFD23698B42C4D1BF
:1053F00000232361C1E7C046F8F4021090F70210C1
:1054000014F5021060F60210D8F602108CF40210A7
:10541000C4F4021048F7021084F60210F0B587B009
:1054200006000F00EFF30583002B1FD10624644212
:10543000E517A4197D418D4202D803D1844201D9D8
:1054400000240025002D14DB0494059500F02CF9B0
:1054500002000B1E13DBA41A9D41002D17DC14D093
:105460003000390000F02CF907B0F0BD234800F0FF
:10547000A5FD234B234A3F21234800F005FD204B87
:10548000204A3F21204800F0FFFC002CE8D0FFF725
:1054900083FE0023029301931C4B0093049A059B07
:1054A000FFF790FE002818DADAE7002300E0002377
:1054B000002BD5D1164B1A68EFF3108172B6136822
:1054C000002BFCD0BFF35F8F114B1B68BFF35F8FC6
:1054D00000221A6081F3108820BF0499059A0D4BB1
:1054E0005B6A9A42E3D80B48806A884203D29A42A8
:1054F000DBD00123DCE70123DAE7C04688F602109F
:10550000F8DB0210F0F6021014DC0210414B001020
:10551000F8D900200040054070B504000D0000F0EF
:10552000C3F802000B1E0ADB200029008018594135
:1055300000290ADB00290CDBFFF770FF70BD084B68
:10554000084A3F21084800F09FFC012040420749DB
:10555000F0E7034B034A3F21034800F095FCC046A7
:10556000F8DB0210F0F6021014DC0210FFFFFF7FE0
:1055700010B5FA2292000023002102F075FBFFF71C
:10558000CBFF10BD70B584B006000C00FFF704FE21
:10559000002302930193194B009332002300FFF77D
:1055A00011FE051E11DD20BFFFF7F6FD2900FFF7F4
:1055B000BDFE134B5B6A9C421BD8114A926AB242F1
:1055C0001AD29C4213D0012014E00D4B5B6A9C421E
:1055D00009D80B4A926AB24207D29C4201D00120FC
:1055E00008E0002006E0002004E0012002E00020A6
:1055F00000E0002004B070BD0120FBE7414B00102B
:105600000040054070B5EFF305833F201840103887
:10561000EFF3108C72B6194B1B68002BFBD0BFF355
:105620005F8F012319008140154A5163154A127892
:105630001400C440234214D0114B5C6A8300124D05
:105640005B599C4206D38300104C1B598A430D4979
:105650000A7007E00A4A031D9B00995899500023DD
:1056600000E00023BFF35F8F044A002111608CF338
:105670001088002B00D0984770BDC046280100D08C
:1056800000400540B7DA002044DA0020DC1B00208F
:1056900010B50100024A0348FBF70AFC10BDC046E2
:1056A000C0F70210A5DA0020044B5B6A034A906A37
:1056B0001900536A9942F9D17047C046004005402D
:1056C000084B5B6A01E0074B5B6A8B42FBD301E04E
:1056D000044B5B6A8B4203D1024B9B6A8342F7D334
:1056E0007047C0460040054070B504000D00FFF74C
:1056F000DBFF02000B0020002900801859418B427B
:1057000002D804D1824202D901204042C1170029A7
:1057100002DBFFF7D5FF70BD024B034A3F21034870
:1057200000F0B2FBF8DB021068F8021014DC021083
:1057300070B504000D00EFF3108672B61B4B1B68AA
:10574000002BFBD0BFF35F8F002D1CD02000FEF795
:10575000D9FE174B83420BD019002000FEF7DAFE6A
:1057600001212000FEF7BEFE0123A340114A136071
:10577000A400114BE550BFF35F8F0C4B00221A6061
:1057800086F3108870BDA2000B4B0021D15001227E
:10579000A2400A490B7893430B7005492000FEF79D
:1057A000FDFF00212000FEF79DFEE4E7280100D068
:1057B0000556001038600540DC1B0020B7DA0020D9
:1057C000F0B5DE4600B584B00400150001921E005D
:1057D0000293FFF769FF03958E4202D84ED18542AE
:1057E0004CD9EFF3108B72B6274B1B68002BFBD004
:1057F000BFF35F8F254A17780125A540EBB23B43E5
:105800001370234B5D63221D92000199D150A200B9
:105810002049029850501B6A2B4212D11C4B1B6C22
:105820002B4208D00020BFF35F8F174B00221A6075
:105830008BF3108823E0184B184AC121184800F058
:1058400023FBFFF731FF8E4214D802D1039B834222
:1058500010D80E4B1B78BB420ED00D4B1D625D6302
:105860001F2004400123A3400E4A1360074B1F7002
:105870001E38D8E70020D6E70120D4E7012004B085
:1058800080BCBB46F0BDC046280100D0B7DA00207E
:105890000040054044DA0020E4F702104CF8021002
:1058A00008F8021080E200E0EFF3108C72B60B4BA8
:1058B0001B68002BFBD0BFF35F8F01238340084A96
:1058C000136208490A789A430A70BFF35F8F034B4B
:1058D00000221A608CF310887047C046280100D05F
:1058E00000400540B7DA002010B500291ED0037B28
:1058F00099421BD84B005B18033B0468A4466344E1
:10590000002919D0002A1DD0914221D0002A25D08B
:10591000047BA24222D80468500080180338201863
:105920008170197800291FD11A7010BD104B114ACF
:105930006821114800F0A8FA104B114A6F310E4847
:1059400000F0A2FA0F4B0E4A70210B4800F09CFAAF
:105950000D4B0B4A7121084800F096FA044B054A9A
:105960006821054800F090FA41701A70DDE7C046E2
:10597000F8F402106CF9021014F5021060F5021030
:1059800058F902106CF5021078F5021070B5060097
:105990000D001400002914D0002A14D08068736808
:1059A0009847002806D0220029003000FFF79CFF0E
:1059B000280007E02A0021003000FFF795FF2000B3
:1059C00000E0100070BD0800FCE7000010B50023E7
:1059D000437301338373037BC3730123027B9A42B6
:1059E00014D9002B0CD0027B934209D85A00D2184C
:1059F000033A01688C4662440133DBB25370EDE731
:105A00000B4B0C4A68210C4800F03EFA002A09D0E2
:105A1000924207D8016853009A18033A8A18002363
:105A2000537010BD024B034A6821034800F02CFA62
:105A3000F8F402106CF9021014F5021010B501739D
:105A400042608360FFF7C2FF10BD000070B5040024
:105A5000081E00D170BD002934D0237B994231D873
:105A60004B005B18033B2268944663445A78002A33
:105A7000F0D02DD0237B9A422AD853009B18033BA9
:105A800021688C4663445D7800215970002825D038
:105A9000237B984222D843001B18033B21688C4685
:105AA00063440021597001002000FFF76FFF0600DA
:105AB00029002000FFF7CAFF020031002000FFF795
:105AC00065FFC7E7084B094A6821094800F0DCF97F
:105AD000054B064A6821064800F0D6F9024B034AF6
